{
  "_format": "hh-sol-artifact-1",
  "contractName": "router",
  "sourceName": "contracts/router.sol",
  "abi": [
    {
      "inputs": [],
      "stateMutability": "nonpayable",
      "type": "constructor"
    },
    {
      "inputs": [
        {
          "internalType": "uint256",
          "name": "",
          "type": "uint256"
        }
      ],
      "name": "Disputes",
      "outputs": [
        {
          "internalType": "address",
          "name": "token",
          "type": "address"
        },
        {
          "internalType": "uint64",
          "name": "identifier",
          "type": "uint64"
        }
      ],
      "stateMutability": "view",
      "type": "function"
    },
    {
      "inputs": [
        {
          "internalType": "address",
          "name": "token",
          "type": "address"
        },
        {
          "internalType": "uint64",
          "name": "id",
          "type": "uint64"
        }
      ],
      "name": "addDispute",
      "outputs": [],
      "stateMutability": "nonpayable",
      "type": "function"
    },
    {
      "inputs": [
        {
          "internalType": "uint256",
          "name": "id",
          "type": "uint256"
        }
      ],
      "name": "getDisputeParams",
      "outputs": [
        {
          "internalType": "address",
          "name": "m",
          "type": "address"
        },
        {
          "internalType": "uint64",
          "name": "_id",
          "type": "uint64"
        }
      ],
      "stateMutability": "view",
      "type": "function"
    }
  ],
  "bytecode": "0x608060405234801561001057600080fd5b50604051806040016040528073dcad3a6d3569df655070ded06cb7a1b2ccd1d3af73ffffffffffffffffffffffffffffffffffffffff168152602001600167ffffffffffffffff168152506000806001815260200190815260200160002060008201518160000160006101000a81548173ffffffffffffffffffffffffffffffffffffffff021916908373ffffffffffffffffffffffffffffffffffffffff16021790555060208201518160000160146101000a81548167ffffffffffffffff021916908367ffffffffffffffff16021790555090505060018081905550610403806100fd6000396000f3fe608060405234801561001057600080fd5b50600436106100405760003560e01c80623556d9146100455780634169a7d3146100615780636d56061114610092575b600080fd5b61005f600480360381019061005a919061028c565b6100c3565b005b61007b600480360381019061007691906102c8565b610189565b60405161008992919061030f565b60405180910390f35b6100ac60048036038101906100a791906102c8565b6101f5565b6040516100ba92919061030f565b60405180910390f35b60405180604001604052808373ffffffffffffffffffffffffffffffffffffffff1681526020018267ffffffffffffffff16815250600080600154815260200190815260200160002060008201518160000160006101000a81548173ffffffffffffffffffffffffffffffffffffffff021916908373ffffffffffffffffffffffffffffffffffffffff16021790555060208201518160000160146101000a81548167ffffffffffffffff021916908367ffffffffffffffff1602179055509050505050565b60008060008084815260200190815260200160002060000160009054906101000a900473ffffffffffffffffffffffffffffffffffffffff1660008085815260200190815260200160002060000160149054906101000a900467ffffffffffffffff1691509150915091565b60006020528060005260406000206000915090508060000160009054906101000a900473ffffffffffffffffffffffffffffffffffffffff16908060000160149054906101000a900467ffffffffffffffff16905082565b60008135905061025c81610388565b92915050565b6000813590506102718161039f565b92915050565b600081359050610286816103b6565b92915050565b6000806040838503121561029f57600080fd5b60006102ad8582860161024d565b92505060206102be85828601610277565b9150509250929050565b6000602082840312156102da57600080fd5b60006102e884828501610262565b91505092915050565b6102fa81610338565b82525050565b61030981610374565b82525050565b600060408201905061032460008301856102f1565b6103316020830184610300565b9392505050565b60006103438261034a565b9050919050565b600073ffffffffffffffffffffffffffffffffffffffff82169050919050565b6000819050919050565b600067ffffffffffffffff82169050919050565b61039181610338565b811461039c57600080fd5b50565b6103a88161036a565b81146103b357600080fd5b50565b6103bf81610374565b81146103ca57600080fd5b5056fea26469706673582212204502863ccadf57971f22605601832a522008eeb140891920e3a35c9f19922c2564736f6c63430008040033",
  "linkReferences": {},
  "deployedLinkReferences": {}
}