{
  "_format": "hh-sol-artifact-1",
  "contractName": "ERC721K",
  "sourceName": "contracts/ERC721K.sol",
  "abi": [
    {
      "inputs": [
        {
          "internalType": "address",
          "name": "r",
          "type": "address"
        }
      ],
      "stateMutability": "nonpayable",
      "type": "constructor"
    },
    {
      "anonymous": false,
      "inputs": [
        {
          "indexed": true,
          "internalType": "address",
          "name": "owner",
          "type": "address"
        },
        {
          "indexed": true,
          "internalType": "address",
          "name": "approved",
          "type": "address"
        },
        {
          "indexed": true,
          "internalType": "uint256",
          "name": "tokenId",
          "type": "uint256"
        }
      ],
      "name": "Approval",
      "type": "event"
    },
    {
      "anonymous": false,
      "inputs": [
        {
          "indexed": true,
          "internalType": "address",
          "name": "owner",
          "type": "address"
        },
        {
          "indexed": true,
          "internalType": "address",
          "name": "operator",
          "type": "address"
        },
        {
          "indexed": false,
          "internalType": "bool",
          "name": "approved",
          "type": "bool"
        }
      ],
      "name": "ApprovalForAll",
      "type": "event"
    },
    {
      "anonymous": false,
      "inputs": [
        {
          "indexed": true,
          "internalType": "address",
          "name": "from",
          "type": "address"
        },
        {
          "indexed": true,
          "internalType": "address",
          "name": "to",
          "type": "address"
        },
        {
          "indexed": true,
          "internalType": "uint256",
          "name": "tokenId",
          "type": "uint256"
        }
      ],
      "name": "Transfer",
      "type": "event"
    },
    {
      "inputs": [
        {
          "internalType": "address",
          "name": "to",
          "type": "address"
        },
        {
          "internalType": "uint256",
          "name": "tokenId",
          "type": "uint256"
        }
      ],
      "name": "approve",
      "outputs": [],
      "stateMutability": "nonpayable",
      "type": "function"
    },
    {
      "inputs": [
        {
          "internalType": "address",
          "name": "owner",
          "type": "address"
        }
      ],
      "name": "balanceOf",
      "outputs": [
        {
          "internalType": "uint256",
          "name": "",
          "type": "uint256"
        }
      ],
      "stateMutability": "view",
      "type": "function"
    },
    {
      "inputs": [],
      "name": "baseURI",
      "outputs": [
        {
          "internalType": "string",
          "name": "",
          "type": "string"
        }
      ],
      "stateMutability": "view",
      "type": "function"
    },
    {
      "inputs": [
        {
          "internalType": "uint256",
          "name": "tokenId",
          "type": "uint256"
        }
      ],
      "name": "burn",
      "outputs": [],
      "stateMutability": "nonpayable",
      "type": "function"
    },
    {
      "inputs": [
        {
          "internalType": "uint256",
          "name": "id",
          "type": "uint256"
        }
      ],
      "name": "decodeTokenID",
      "outputs": [
        {
          "internalType": "uint32",
          "name": "",
          "type": "uint32"
        },
        {
          "internalType": "uint64",
          "name": "",
          "type": "uint64"
        },
        {
          "internalType": "address",
          "name": "",
          "type": "address"
        }
      ],
      "stateMutability": "view",
      "type": "function"
    },
    {
      "inputs": [
        {
          "internalType": "address",
          "name": "m",
          "type": "address"
        },
        {
          "internalType": "uint256",
          "name": "b",
          "type": "uint256"
        },
        {
          "internalType": "uint256",
          "name": "k",
          "type": "uint256"
        }
      ],
      "name": "encodeTokenID",
      "outputs": [
        {
          "internalType": "uint256",
          "name": "",
          "type": "uint256"
        }
      ],
      "stateMutability": "view",
      "type": "function"
    },
    {
      "inputs": [
        {
          "internalType": "uint256",
          "name": "tokenId",
          "type": "uint256"
        }
      ],
      "name": "exists",
      "outputs": [
        {
          "internalType": "bool",
          "name": "",
          "type": "bool"
        }
      ],
      "stateMutability": "view",
      "type": "function"
    },
    {
      "inputs": [
        {
          "internalType": "uint256",
          "name": "tokenId",
          "type": "uint256"
        }
      ],
      "name": "getApproved",
      "outputs": [
        {
          "internalType": "address",
          "name": "",
          "type": "address"
        }
      ],
      "stateMutability": "view",
      "type": "function"
    },
    {
      "inputs": [
        {
          "internalType": "address",
          "name": "owner",
          "type": "address"
        },
        {
          "internalType": "address",
          "name": "operator",
          "type": "address"
        }
      ],
      "name": "isApprovedForAll",
      "outputs": [
        {
          "internalType": "bool",
          "name": "",
          "type": "bool"
        }
      ],
      "stateMutability": "view",
      "type": "function"
    },
    {
      "inputs": [],
      "name": "name",
      "outputs": [
        {
          "internalType": "string",
          "name": "",
          "type": "string"
        }
      ],
      "stateMutability": "view",
      "type": "function"
    },
    {
      "inputs": [
        {
          "internalType": "uint256",
          "name": "tokenId",
          "type": "uint256"
        }
      ],
      "name": "ownerOf",
      "outputs": [
        {
          "internalType": "address",
          "name": "",
          "type": "address"
        }
      ],
      "stateMutability": "view",
      "type": "function"
    },
    {
      "inputs": [
        {
          "internalType": "address",
          "name": "to",
          "type": "address"
        },
        {
          "internalType": "enum ERC721K.CourtMember",
          "name": "member",
          "type": "uint8"
        },
        {
          "internalType": "uint256",
          "name": "bet",
          "type": "uint256"
        }
      ],
      "name": "safeMint",
      "outputs": [],
      "stateMutability": "nonpayable",
      "type": "function"
    },
    {
      "inputs": [
        {
          "internalType": "address",
          "name": "from",
          "type": "address"
        },
        {
          "internalType": "address",
          "name": "to",
          "type": "address"
        },
        {
          "internalType": "uint256",
          "name": "tokenId",
          "type": "uint256"
        }
      ],
      "name": "safeTransferFrom",
      "outputs": [],
      "stateMutability": "nonpayable",
      "type": "function"
    },
    {
      "inputs": [
        {
          "internalType": "address",
          "name": "from",
          "type": "address"
        },
        {
          "internalType": "address",
          "name": "to",
          "type": "address"
        },
        {
          "internalType": "uint256",
          "name": "tokenId",
          "type": "uint256"
        },
        {
          "internalType": "bytes",
          "name": "data",
          "type": "bytes"
        }
      ],
      "name": "safeTransferFrom",
      "outputs": [],
      "stateMutability": "nonpayable",
      "type": "function"
    },
    {
      "inputs": [
        {
          "internalType": "address",
          "name": "operator",
          "type": "address"
        },
        {
          "internalType": "bool",
          "name": "approved",
          "type": "bool"
        }
      ],
      "name": "setApprovalForAll",
      "outputs": [],
      "stateMutability": "nonpayable",
      "type": "function"
    },
    {
      "inputs": [
        {
          "internalType": "bytes4",
          "name": "interfaceId",
          "type": "bytes4"
        }
      ],
      "name": "supportsInterface",
      "outputs": [
        {
          "internalType": "bool",
          "name": "",
          "type": "bool"
        }
      ],
      "stateMutability": "view",
      "type": "function"
    },
    {
      "inputs": [],
      "name": "symbol",
      "outputs": [
        {
          "internalType": "string",
          "name": "",
          "type": "string"
        }
      ],
      "stateMutability": "view",
      "type": "function"
    },
    {
      "inputs": [
        {
          "internalType": "uint256",
          "name": "tokenId",
          "type": "uint256"
        }
      ],
      "name": "tokenURI",
      "outputs": [
        {
          "internalType": "string",
          "name": "",
          "type": "string"
        }
      ],
      "stateMutability": "view",
      "type": "function"
    },
    {
      "inputs": [
        {
          "internalType": "address",
          "name": "from",
          "type": "address"
        },
        {
          "internalType": "address",
          "name": "to",
          "type": "address"
        },
        {
          "internalType": "uint256",
          "name": "tokenId",
          "type": "uint256"
        }
      ],
      "name": "transferFrom",
      "outputs": [],
      "stateMutability": "nonpayable",
      "type": "function"
    }
  ],
  "bytecode": "0x60806040523480156200001157600080fd5b5060405162002f6238038062002f628339818101604052810190620000379190620001e6565b6040518060400160405280600d81526020017f4b616e6761726f6f436f757274000000000000000000000000000000000000008152506040518060400160405280600281526020017f4b430000000000000000000000000000000000000000000000000000000000008152508160009080519060200190620000bb9291906200011f565b508060019080519060200190620000d49291906200011f565b50505080600660006101000a81548173ffffffffffffffffffffffffffffffffffffffff021916908373ffffffffffffffffffffffffffffffffffffffff16021790555050620002c5565b8280546200012d9062000246565b90600052602060002090601f0160209004810192826200015157600085556200019d565b82601f106200016c57805160ff19168380011785556200019d565b828001600101855582156200019d579182015b828111156200019c5782518255916020019190600101906200017f565b5b509050620001ac9190620001b0565b5090565b5b80821115620001cb576000816000905550600101620001b1565b5090565b600081519050620001e081620002ab565b92915050565b600060208284031215620001f957600080fd5b60006200020984828501620001cf565b91505092915050565b60006200021f8262000226565b9050919050565b600073ffffffffffffffffffffffffffffffffffffffff82169050919050565b600060028204905060018216806200025f57607f821691505b602082108114156200027657620002756200027c565b5b50919050565b7f4e487b7100000000000000000000000000000000000000000000000000000000600052602260045260246000fd5b620002b68162000212565b8114620002c257600080fd5b50565b612c8d80620002d56000396000f3fe608060405234801561001057600080fd5b50600436106101215760003560e01c80636352211e116100ad578063a22cb46511610071578063a22cb4651461032e578063b88d4fde1461034a578063c3e9e2d514610366578063c87b56dd14610396578063e985e9c5146103c657610121565b80636352211e146102765780636c0360eb146102a657806370a08231146102c4578063776fc651146102f457806395d89b411461031057610121565b806311b3b918116100f457806311b3b918146101c057806323b872dd146101f257806342842e0e1461020e57806342966c681461022a5780634f558e791461024657610121565b806301ffc9a71461012657806306fdde0314610156578063081812fc14610174578063095ea7b3146101a4575b600080fd5b610140600480360381019061013b919061203b565b6103f6565b60405161014d91906123de565b60405180910390f35b61015e6104d8565b60405161016b91906123f9565b60405180910390f35b61018e6004803603810190610189919061208d565b61056a565b60405161019b9190612377565b60405180910390f35b6101be60048036038101906101b99190611f74565b6105b0565b005b6101da60048036038101906101d5919061208d565b6106c8565b6040516101e993929190612596565b60405180910390f35b61020c60048036038101906102079190611e1f565b6106e5565b005b61022860048036038101906102239190611e1f565b610745565b005b610244600480360381019061023f919061208d565b610765565b005b610260600480360381019061025b919061208d565b610771565b60405161026d91906123de565b60405180910390f35b610290600480360381019061028b919061208d565b610783565b60405161029d9190612377565b60405180910390f35b6102ae61080a565b6040516102bb91906123f9565b60405180910390f35b6102de60048036038101906102d99190611dba565b610818565b6040516102eb919061257b565b60405180910390f35b61030e60048036038101906103099190611f25565b6108d0565b005b6103186109f3565b60405161032591906123f9565b60405180910390f35b61034860048036038101906103439190611ee9565b610a85565b005b610364600480360381019061035f9190611e6e565b610a9b565b005b610380600480360381019061037b9190611fb0565b610afd565b60405161038d919061257b565b60405180910390f35b6103b060048036038101906103ab919061208d565b610b36565b6040516103bd91906123f9565b60405180910390f35b6103e060048036038101906103db9190611de3565b610ba4565b6040516103ed91906123de565b60405180910390f35b60007f80ac58cd000000000000000000000000000000000000000000000000000000007bffffffffffffffffffffffffffffffffffffffffffffffffffffffff1916827bffffffffffffffffffffffffffffffffffffffffffffffffffffffff191614806104c157507f5b5e139f000000000000000000000000000000000000000000000000000000007bffffffffffffffffffffffffffffffffffffffffffffffffffffffff1916827bffffffffffffffffffffffffffffffffffffffffffffffffffffffff1916145b806104d157506104d082610c38565b5b9050919050565b6060600080546104e790612784565b80601f016020809104026020016040519081016040528092919081815260200182805461051390612784565b80156105605780601f1061053557610100808354040283529160200191610560565b820191906000526020600020905b81548152906001019060200180831161054357829003601f168201915b5050505050905090565b600061057582610ca2565b6004600083815260200190815260200160002060009054906101000a900473ffffffffffffffffffffffffffffffffffffffff169050919050565b60006105bb82610783565b90508073ffffffffffffffffffffffffffffffffffffffff168373ffffffffffffffffffffffffffffffffffffffff16141561062c576040517f08c379a00000000000000000000000000000000000000000000000000000000081526004016106239061253b565b60405180910390fd5b8073ffffffffffffffffffffffffffffffffffffffff1661064b610ced565b73ffffffffffffffffffffffffffffffffffffffff16148061067a575061067981610674610ced565b610ba4565b5b6106b9576040517f08c379a00000000000000000000000000000000000000000000000000000000081526004016106b09061255b565b60405180910390fd5b6106c38383610cf5565b505050565b600080600083602085901c606086901c9250925092509193909250565b6106f66106f0610ced565b82610dae565b610735576040517f08c379a000000000000000000000000000000000000000000000000000000000815260040161072c9061241b565b60405180910390fd5b610740838383610e43565b505050565b61076083838360405180602001604052806000815250610a9b565b505050565b61076e8161113d565b50565b600061077c8261128b565b9050919050565b60008061078f836112cc565b9050600073ffffffffffffffffffffffffffffffffffffffff168173ffffffffffffffffffffffffffffffffffffffff161415610801576040517f08c379a00000000000000000000000000000000000000000000000000000000081526004016107f89061251b565b60405180910390fd5b80915050919050565b6060610814611309565b5090565b60008073ffffffffffffffffffffffffffffffffffffffff168273ffffffffffffffffffffffffffffffffffffffff161415610889576040517f08c379a0000000000000000000000000000000000000000000000000000000008152600401610880906124db565b60405180910390fd5b600360008373ffffffffffffffffffffffffffffffffffffffff1673ffffffffffffffffffffffffffffffffffffffff168152602001908152602001600020549050919050565b600080600660009054906101000a900473ffffffffffffffffffffffffffffffffffffffff1673ffffffffffffffffffffffffffffffffffffffff16634169a7d3846040518263ffffffff1660e01b815260040161092e919061257b565b604080518083038186803b15801561094557600080fd5b505afa158015610959573d6000803e3d6000fd5b505050506040513d601f19601f8201168201806040525081019061097d9190611fff565b63ffffffff16915091506109ec856109e7848467ffffffffffffffff1660018960078111156109d5577f4e487b7100000000000000000000000000000000000000000000000000000000600052602160045260246000fd5b6109df9190612666565b60ff16610afd565b611329565b5050505050565b606060018054610a0290612784565b80601f0160208091040260200160405190810160405280929190818152602001828054610a2e90612784565b8015610a7b5780601f10610a5057610100808354040283529160200191610a7b565b820191906000526020600020905b815481529060010190602001808311610a5e57829003601f168201915b5050505050905090565b610a97610a90610ced565b8383611347565b5050565b610aac610aa6610ced565b83610dae565b610aeb576040517f08c379a0000000000000000000000000000000000000000000000000000000008152600401610ae29061241b565b60405180910390fd5b610af7848484846114b4565b50505050565b600080829050602084901b8117905060608573ffffffffffffffffffffffffffffffffffffffff16901b81179050809150509392505050565b6060610b4182610ca2565b6000610b4b611309565b90506000815111610b6b5760405180602001604052806000815250610b9c565b80610b7b8463ffffffff16611510565b604051602001610b8c929190612348565b6040516020818303038152906040525b915050919050565b6000600560008473ffffffffffffffffffffffffffffffffffffffff1673ffffffffffffffffffffffffffffffffffffffff16815260200190815260200160002060008373ffffffffffffffffffffffffffffffffffffffff1673ffffffffffffffffffffffffffffffffffffffff16815260200190815260200160002060009054906101000a900460ff16905092915050565b60007f01ffc9a7000000000000000000000000000000000000000000000000000000007bffffffffffffffffffffffffffffffffffffffffffffffffffffffff1916827bffffffffffffffffffffffffffffffffffffffffffffffffffffffff1916149050919050565b610cab8161128b565b610cea576040517f08c379a0000000000000000000000000000000000000000000000000000000008152600401610ce19061251b565b60405180910390fd5b50565b600033905090565b816004600083815260200190815260200160002060006101000a81548173ffffffffffffffffffffffffffffffffffffffff021916908373ffffffffffffffffffffffffffffffffffffffff160217905550808273ffffffffffffffffffffffffffffffffffffffff16610d6883610783565b73ffffffffffffffffffffffffffffffffffffffff167f8c5be1e5ebec7d5bd14f71427d1e84f3dd0314c0f7b2291e5b200ac8c7c3b92560405160405180910390a45050565b600080610dba83610783565b90508073ffffffffffffffffffffffffffffffffffffffff168473ffffffffffffffffffffffffffffffffffffffff161480610dfc5750610dfb8185610ba4565b5b80610e3a57508373ffffffffffffffffffffffffffffffffffffffff16610e228461056a565b73ffffffffffffffffffffffffffffffffffffffff16145b91505092915050565b8273ffffffffffffffffffffffffffffffffffffffff16610e6382610783565b73ffffffffffffffffffffffffffffffffffffffff1614610eb9576040517f08c379a0000000000000000000000000000000000000000000000000000000008152600401610eb09061245b565b60405180910390fd5b600073ffffffffffffffffffffffffffffffffffffffff168273ffffffffffffffffffffffffffffffffffffffff161415610f29576040517f08c379a0000000000000000000000000000000000000000000000000000000008152600401610f209061249b565b60405180910390fd5b610f368383836001611634565b8273ffffffffffffffffffffffffffffffffffffffff16610f5682610783565b73ffffffffffffffffffffffffffffffffffffffff1614610fac576040517f08c379a0000000000000000000000000000000000000000000000000000000008152600401610fa39061245b565b60405180910390fd5b6004600082815260200190815260200160002060006101000a81549073ffffffffffffffffffffffffffffffffffffffff02191690556001600360008573ffffffffffffffffffffffffffffffffffffffff1673ffffffffffffffffffffffffffffffffffffffff168152602001908152602001600020600082825403925050819055506001600360008473ffffffffffffffffffffffffffffffffffffffff1673ffffffffffffffffffffffffffffffffffffffff16815260200190815260200160002060008282540192505081905550816002600083815260200190815260200160002060006101000a81548173ffffffffffffffffffffffffffffffffffffffff021916908373ffffffffffffffffffffffffffffffffffffffff160217905550808273ffffffffffffffffffffffffffffffffffffffff168473ffffffffffffffffffffffffffffffffffffffff167fddf252ad1be2c89b69c2b068fc378daa952ba7f163c4a11628f55a4df523b3ef60405160405180910390a4611138838383600161163a565b505050565b600061114882610783565b9050611158816000846001611634565b61116182610783565b90506004600083815260200190815260200160002060006101000a81549073ffffffffffffffffffffffffffffffffffffffff02191690556001600360008373ffffffffffffffffffffffffffffffffffffffff1673ffffffffffffffffffffffffffffffffffffffff168152602001908152602001600020600082825403925050819055506002600083815260200190815260200160002060006101000a81549073ffffffffffffffffffffffffffffffffffffffff021916905581600073ffffffffffffffffffffffffffffffffffffffff168273ffffffffffffffffffffffffffffffffffffffff167fddf252ad1be2c89b69c2b068fc378daa952ba7f163c4a11628f55a4df523b3ef60405160405180910390a461128781600084600161163a565b5050565b60008073ffffffffffffffffffffffffffffffffffffffff166112ad836112cc565b73ffffffffffffffffffffffffffffffffffffffff1614159050919050565b60006002600083815260200190815260200160002060009054906101000a900473ffffffffffffffffffffffffffffffffffffffff169050919050565b6060604051806080016040528060598152602001612bff60599139905090565b611343828260405180602001604052806000815250611640565b5050565b8173ffffffffffffffffffffffffffffffffffffffff168373ffffffffffffffffffffffffffffffffffffffff1614156113b6576040517f08c379a00000000000000000000000000000000000000000000000000000000081526004016113ad906124bb565b60405180910390fd5b80600560008573ffffffffffffffffffffffffffffffffffffffff1673ffffffffffffffffffffffffffffffffffffffff16815260200190815260200160002060008473ffffffffffffffffffffffffffffffffffffffff1673ffffffffffffffffffffffffffffffffffffffff16815260200190815260200160002060006101000a81548160ff0219169083151502179055508173ffffffffffffffffffffffffffffffffffffffff168373ffffffffffffffffffffffffffffffffffffffff167f17307eab39ab6107e8899845ad3d59bd9653f200f220920489ca2b5937696c31836040516114a791906123de565b60405180910390a3505050565b6114bf848484610e43565b6114cb8484848461169b565b61150a576040517f08c379a00000000000000000000000000000000000000000000000000000000081526004016115019061243b565b60405180910390fd5b50505050565b60606000600161151f84611832565b01905060008167ffffffffffffffff811115611564577f4e487b7100000000000000000000000000000000000000000000000000000000600052604160045260246000fd5b6040519080825280601f01601f1916602001820160405280156115965781602001600182028036833780820191505090505b509050600082602001820190505b600115611629578080600190039150507f3031323334353637383961626364656600000000000000000000000000000000600a86061a8153600a8581611613577f4e487b7100000000000000000000000000000000000000000000000000000000600052601260045260246000fd5b049450600085141561162457611629565b6115a4565b819350505050919050565b50505050565b50505050565b61164a8383611a69565b611657600084848461169b565b611696576040517f08c379a000000000000000000000000000000000000000000000000000000000815260040161168d9061243b565b60405180910390fd5b505050565b60006116bc8473ffffffffffffffffffffffffffffffffffffffff16611c87565b15611825578373ffffffffffffffffffffffffffffffffffffffff1663150b7a026116e5610ced565b8786866040518563ffffffff1660e01b81526004016117079493929190612392565b602060405180830381600087803b15801561172157600080fd5b505af192505050801561175257506040513d601f19601f8201168201806040525081019061174f9190612064565b60015b6117d5573d8060008114611782576040519150601f19603f3d011682016040523d82523d6000602084013e611787565b606091505b506000815114156117cd576040517f08c379a00000000000000000000000000000000000000000000000000000000081526004016117c49061243b565b60405180910390fd5b805181602001fd5b63150b7a0260e01b7bffffffffffffffffffffffffffffffffffffffffffffffffffffffff1916817bffffffffffffffffffffffffffffffffffffffffffffffffffffffff19161491505061182a565b600190505b949350505050565b600080600090507a184f03e93ff9f4daa797ed6e38ed64bf6a1f01000000000000000083106118b6577a184f03e93ff9f4daa797ed6e38ed64bf6a1f01000000000000000083816118ac577f4e487b7100000000000000000000000000000000000000000000000000000000600052601260045260246000fd5b0492506040810190505b6d04ee2d6d415b85acef81000000008310611919576d04ee2d6d415b85acef8100000000838161190f577f4e487b7100000000000000000000000000000000000000000000000000000000600052601260045260246000fd5b0492506020810190505b662386f26fc10000831061196e57662386f26fc100008381611964577f4e487b7100000000000000000000000000000000000000000000000000000000600052601260045260246000fd5b0492506010810190505b6305f5e10083106119bd576305f5e10083816119b3577f4e487b7100000000000000000000000000000000000000000000000000000000600052601260045260246000fd5b0492506008810190505b6127108310611a085761271083816119fe577f4e487b7100000000000000000000000000000000000000000000000000000000600052601260045260246000fd5b0492506004810190505b60648310611a515760648381611a47577f4e487b7100000000000000000000000000000000000000000000000000000000600052601260045260246000fd5b0492506002810190505b600a8310611a60576001810190505b80915050919050565b600073ffffffffffffffffffffffffffffffffffffffff168273ffffffffffffffffffffffffffffffffffffffff161415611ad9576040517f08c379a0000000000000000000000000000000000000000000000000000000008152600401611ad0906124fb565b60405180910390fd5b611ae28161128b565b15611b22576040517f08c379a0000000000000000000000000000000000000000000000000000000008152600401611b199061247b565b60405180910390fd5b611b30600083836001611634565b611b398161128b565b15611b79576040517f08c379a0000000000000000000000000000000000000000000000000000000008152600401611b709061247b565b60405180910390fd5b6001600360008473ffffffffffffffffffffffffffffffffffffffff1673ffffffffffffffffffffffffffffffffffffffff16815260200190815260200160002060008282540192505081905550816002600083815260200190815260200160002060006101000a81548173ffffffffffffffffffffffffffffffffffffffff021916908373ffffffffffffffffffffffffffffffffffffffff160217905550808273ffffffffffffffffffffffffffffffffffffffff16600073ffffffffffffffffffffffffffffffffffffffff167fddf252ad1be2c89b69c2b068fc378daa952ba7f163c4a11628f55a4df523b3ef60405160405180910390a4611c8360008383600161163a565b5050565b6000808273ffffffffffffffffffffffffffffffffffffffff163b119050919050565b6000611cbd611cb8846125f2565b6125cd565b905082815260208101848484011115611cd557600080fd5b611ce0848285612742565b509392505050565b600081359050611cf781612b7b565b92915050565b600081519050611d0c81612b7b565b92915050565b600081359050611d2181612b92565b92915050565b600081359050611d3681612ba9565b92915050565b600081519050611d4b81612ba9565b92915050565b600082601f830112611d6257600080fd5b8135611d72848260208601611caa565b91505092915050565b600081359050611d8a81612bc0565b92915050565b600081359050611d9f81612bd0565b92915050565b600081519050611db481612be7565b92915050565b600060208284031215611dcc57600080fd5b6000611dda84828501611ce8565b91505092915050565b60008060408385031215611df657600080fd5b6000611e0485828601611ce8565b9250506020611e1585828601611ce8565b9150509250929050565b600080600060608486031215611e3457600080fd5b6000611e4286828701611ce8565b9350506020611e5386828701611ce8565b9250506040611e6486828701611d90565b9150509250925092565b60008060008060808587031215611e8457600080fd5b6000611e9287828801611ce8565b9450506020611ea387828801611ce8565b9350506040611eb487828801611d90565b925050606085013567ffffffffffffffff811115611ed157600080fd5b611edd87828801611d51565b91505092959194509250565b60008060408385031215611efc57600080fd5b6000611f0a85828601611ce8565b9250506020611f1b85828601611d12565b9150509250929050565b600080600060608486031215611f3a57600080fd5b6000611f4886828701611ce8565b9350506020611f5986828701611d7b565b9250506040611f6a86828701611d90565b9150509250925092565b60008060408385031215611f8757600080fd5b6000611f9585828601611ce8565b9250506020611fa685828601611d90565b9150509250929050565b600080600060608486031215611fc557600080fd5b6000611fd386828701611ce8565b9350506020611fe486828701611d90565b9250506040611ff586828701611d90565b9150509250925092565b6000806040838503121561201257600080fd5b600061202085828601611cfd565b925050602061203185828601611da5565b9150509250929050565b60006020828403121561204d57600080fd5b600061205b84828501611d27565b91505092915050565b60006020828403121561207657600080fd5b600061208484828501611d3c565b91505092915050565b60006020828403121561209f57600080fd5b60006120ad84828501611d90565b91505092915050565b6120bf8161269d565b82525050565b6120ce816126af565b82525050565b60006120df82612623565b6120e98185612639565b93506120f9818560208601612751565b61210281612874565b840191505092915050565b60006121188261262e565b612122818561264a565b9350612132818560208601612751565b61213b81612874565b840191505092915050565b60006121518261262e565b61215b818561265b565b935061216b818560208601612751565b80840191505092915050565b6000612184602d8361264a565b915061218f82612885565b604082019050919050565b60006121a760328361264a565b91506121b2826128d4565b604082019050919050565b60006121ca60258361264a565b91506121d582612923565b604082019050919050565b60006121ed601c8361264a565b91506121f882612972565b602082019050919050565b600061221060248361264a565b915061221b8261299b565b604082019050919050565b600061223360198361264a565b915061223e826129ea565b602082019050919050565b600061225660298361264a565b915061226182612a13565b604082019050919050565b600061227960208361264a565b915061228482612a62565b602082019050919050565b600061229c60058361265b565b91506122a782612a8b565b600582019050919050565b60006122bf60188361264a565b91506122ca82612ab4565b602082019050919050565b60006122e260218361264a565b91506122ed82612add565b604082019050919050565b6000612305603d8361264a565b915061231082612b2c565b604082019050919050565b61232481612707565b82525050565b61233381612711565b82525050565b61234281612721565b82525050565b60006123548285612146565b91506123608284612146565b915061236b8261228f565b91508190509392505050565b600060208201905061238c60008301846120b6565b92915050565b60006080820190506123a760008301876120b6565b6123b460208301866120b6565b6123c1604083018561231b565b81810360608301526123d381846120d4565b905095945050505050565b60006020820190506123f360008301846120c5565b92915050565b60006020820190508181036000830152612413818461210d565b905092915050565b6000602082019050818103600083015261243481612177565b9050919050565b600060208201905081810360008301526124548161219a565b9050919050565b60006020820190508181036000830152612474816121bd565b9050919050565b60006020820190508181036000830152612494816121e0565b9050919050565b600060208201905081810360008301526124b481612203565b9050919050565b600060208201905081810360008301526124d481612226565b9050919050565b600060208201905081810360008301526124f481612249565b9050919050565b600060208201905081810360008301526125148161226c565b9050919050565b60006020820190508181036000830152612534816122b2565b9050919050565b60006020820190508181036000830152612554816122d5565b9050919050565b60006020820190508181036000830152612574816122f8565b9050919050565b6000602082019050612590600083018461231b565b92915050565b60006060820190506125ab600083018661232a565b6125b86020830185612339565b6125c560408301846120b6565b949350505050565b60006125d76125e8565b90506125e382826127b6565b919050565b6000604051905090565b600067ffffffffffffffff82111561260d5761260c612845565b5b61261682612874565b9050602081019050919050565b600081519050919050565b600081519050919050565b600082825260208201905092915050565b600082825260208201905092915050565b600081905092915050565b600061267182612735565b915061267c83612735565b92508260ff03821115612692576126916127e7565b5b828201905092915050565b60006126a8826126e7565b9050919050565b60008115159050919050565b60007fffffffff0000000000000000000000000000000000000000000000000000000082169050919050565b600073ffffffffffffffffffffffffffffffffffffffff82169050919050565b6000819050919050565b600063ffffffff82169050919050565b600067ffffffffffffffff82169050919050565b600060ff82169050919050565b82818337600083830152505050565b60005b8381101561276f578082015181840152602081019050612754565b8381111561277e576000848401525b50505050565b6000600282049050600182168061279c57607f821691505b602082108114156127b0576127af612816565b5b50919050565b6127bf82612874565b810181811067ffffffffffffffff821117156127de576127dd612845565b5b80604052505050565b7f4e487b7100000000000000000000000000000000000000000000000000000000600052601160045260246000fd5b7f4e487b7100000000000000000000000000000000000000000000000000000000600052602260045260246000fd5b7f4e487b7100000000000000000000000000000000000000000000000000000000600052604160045260246000fd5b6000601f19601f8301169050919050565b7f4552433732313a2063616c6c6572206973206e6f7420746f6b656e206f776e6560008201527f72206f7220617070726f76656400000000000000000000000000000000000000602082015250565b7f4552433732313a207472616e7366657220746f206e6f6e20455243373231526560008201527f63656976657220696d706c656d656e7465720000000000000000000000000000602082015250565b7f4552433732313a207472616e736665722066726f6d20696e636f72726563742060008201527f6f776e6572000000000000000000000000000000000000000000000000000000602082015250565b7f4552433732313a20746f6b656e20616c7265616479206d696e74656400000000600082015250565b7f4552433732313a207472616e7366657220746f20746865207a65726f2061646460008201527f7265737300000000000000000000000000000000000000000000000000000000602082015250565b7f4552433732313a20617070726f766520746f2063616c6c657200000000000000600082015250565b7f4552433732313a2061646472657373207a65726f206973206e6f74206120766160008201527f6c6964206f776e65720000000000000000000000000000000000000000000000602082015250565b7f4552433732313a206d696e7420746f20746865207a65726f2061646472657373600082015250565b7f2e6a736f6e000000000000000000000000000000000000000000000000000000600082015250565b7f4552433732313a20696e76616c696420746f6b656e2049440000000000000000600082015250565b7f4552433732313a20617070726f76616c20746f2063757272656e74206f776e6560008201527f7200000000000000000000000000000000000000000000000000000000000000602082015250565b7f4552433732313a20617070726f76652063616c6c6572206973206e6f7420746f60008201527f6b656e206f776e6572206f7220617070726f76656420666f7220616c6c000000602082015250565b612b848161269d565b8114612b8f57600080fd5b50565b612b9b816126af565b8114612ba657600080fd5b50565b612bb2816126bb565b8114612bbd57600080fd5b50565b60088110612bcd57600080fd5b50565b612bd981612707565b8114612be457600080fd5b50565b612bf081612711565b8114612bfb57600080fd5b5056fe68747470733a2f2f62616679626569666734366d6a656b703335617137736173666a3264667769727575366279747475646374716c75726537693562767a6e656764652e697066732e6e667473746f726167652e6c696e6b2fa2646970667358221220f2ae7f264126b9ab8b7bb481384156c4450fda790c3816204f41c2dd7789f5c864736f6c63430008040033",
  "linkReferences": {},
  "deployedLinkReferences": {}
}